S01F0000626F6F746C6F616465722D6170706C6F616465722D6372632E73333760
S31500000000081000202FA300002DA30000BDA40000AF
S315000000102DA300002DA300002DA300002DA300009A
S315000000202DA300002DA3000094C200002DA3000004
S315000000302DA3000044C200002DA300002DA3000044
S315000000402DA300002DA300002DA300002DA300006A
S315000000502DA300002DA300002DA300002DA300005A
S315000000602DA300002DA300002DA300002DA300004A
S315000000702DA300002DA300002DA300002DA300003A
S315000000802DA300002DA300002DA300002DA300002A
S315000000902DA300002DA300002DA300002DA300001A
S315000000A02DA3000051170000311700002DA30000FA
S315000000B02DA30000258C00002DA3000079960000DA
S315000000C065BF000061BF0000598E00007BBF0000C5
S315000000D069BF0000499600006DBF0000B996000098
S315000000E051760000A1760000299700002DA300009C
S315000000F02DA300002DA300002DA300002DA30000BA
S315000001002DA300002DA300002DA300002DA30000A9
S315000001102DA300002DA300002DA300002DA3000099
S315000001202DA300002DA300002DA300002DA3000089
S315000001302DA300002DA300002DA300002DA3000079
S3150000014070B506468AB02C480BF033FA2B482C4B78
S31500000150002103602B4B2C4C436004F0E9F824A3E8
S31500000160D3E900232060CDE900234FF0FF334FF0A1
S31500000170FF320BF0C5FA02224FF0FF3120680BF078
S31500000180C1FA00239422CDE9073309933C23CDE934
S3150000019003320593962303A92068069304F08EF98B
S315000001A00AF045FC2546014620680BF0E7FA206870
S315000001B00BF04AFBB6F9001055F8080B0BF0C4FA21
S315000001C0766866B928460AF065FFA37B66F30003E6
S315000001D0A373202323840AF00BFC0AB070BD306899
S315000001E0A060B288B379AA80AB71F2E7AFF3008062
S315000001F00855005100000000690345ECA01B0020D3
S3150000020031390000B01B0020C01B00200348044BFE
S31500000210834202D0034B03B1184770475C25002088
S315000002205C25002000000000064B0749C91A89100A
S3150000023048BF0131491003D0044B0BB101481847A0
S31500000240704700BF5C2500205C25002000000000F0
S3150000025010B5064C237843B9FFF7D8FF044B13B10A
S315000002600448AFF300800123237010BD96240020BC
S31500000270000000005401010008B5054B1BB10549FB
S315000002800548AFF30080BDE80840FFF7CDBF00BFCB
S3150000029000000000381200205401010010B5234C64
S315000002A001F014FE01F01CFF236F012023F0070369
S315000002B043F00303236701F03DFF1D4B00209B6ABB
S315000002C09B075EBF01221B4B9A62D4F8203123F0B4
S315000002D0030343F00203C4F82031D4F8243123F099
S315000002E0070343F00203C4F82431D4F8403123F065
S315000002F0030343F00203C4F84031D4F8603123F01D
S31500000300030343F00203C4F86031D4F8403223F00B
S31500000310030343F00203C4F84032D4F8003223F05A
S31500000320070343F00203C4F8003210BD00800050FA
S3150000033000C0005000E00050064B0748DA1C121AB5
S31500000340C11E22F00302994288BF002203490BF026
S315000003505CBE00BF5C250020D82400206801010097
S31500000360064B0748DA1C121AC11E22F003029942F4
S3150000037088BF002200210BF040BE00BFD42400201D
S31500000380081000204FF40041134B144A70B59A60D0
S31500000390D3F88820124D42F47002C3F88820114A1F
S315000003A005F5005491664FF0FF3222664FF6DF7274
S315000003B062660222C3F8D020BFF34F8FBFF36F8F60
S315000003C04FF44036032002F021FA0320E66002F0E3
S315000003D00FFA2E6170BD00BF00ED00E000000000C6
S315000003E00080004400900050054B1860054B1B6FC1
S315000003F003F00703032B01D10BF034BE704700BF97
S31500000400F02400200080005010B5154BADF5087D96
S3150000041003AC0FCB84E80F002C22002107A80BF0B9
S31500000420ECFDFF234FF4947200213EA88DF81D3099
S315000004300BF0E3FD482200210DEB02000BF0DDFD81
S315000004406822002124A80BF0D8FD009424AB12AA40
S315000004503EA907A800F0E2F80DF5087D10BD00BF23
S3150000046018C200000122044B1A700023034A1370BD
S31500000470034A1370704700BF992400209824002077
S3150000048097240020002238B5134B144C1A70012211
S31500000490134B1A7023689A78EAB1DA78DAB11A78C7
S315000004A0510707D5986A09F0E8FF18B14FF4C03034
S315000004B000F0B4F923681A7892070CD55D6809F044
S315000004C0C4FF854207D923684FF4C030596ABDE896
S315000004D0384000F07BB938BD99240020681200200E
S315000004E09824002007B5024601200B4606490870ED
S315000004F0064907480968009106490068096800F03E
S31500000500AFFB03B05DF804FB9724002064120020C3
S315000005106012002068120020044A0549054820237D
S3150000052012680968006800F061BB00BF581200201D
S315000005305C12002060120020094B1A68D37892786A
S315000005402AB1002B41F20C0018BF0020704741F27F
S315000005500C0240F20570002B08BF1046704700BF22
S315000005606812002008B5FFF799FE02F0E3F802F0E2
S31500000570D1F802F069F8BDE8084001480AF0FBBC72
S315000005805012002010B5234B234C18681B7992B0EB
S315000005908DF80C3023880290ADF80D30A3786846AC
S315000005A08DF80F300AF0F5FC41F60833ADF810303F
S315000005B09DF80630BDF80420C3F300038DF818300B
S315000005C040F60223ADF8283000230098ADF8162037
S315000005D08DF82A30CDF8120002F0B4FB02F0B8FB19
S315000005E02046032102F0BAFB02F0C0FB02F0A4FB96
S315000005F0112102A80AF0E1FC03210AA80AF0E4FC92
S3150000060001200AF0E8FC002840F2017008BF002033
S3150000061012B010BD28C200002EC2000070B5134CE7
S31500000620134E20601348144D016014490A60144AA1
S315000006301360049A134B1A6033780BB10AF0A7FCC7
S315000006402B78002BF8D0104B1B784BB123689A7887
S315000006504AB1DB7840F20570002B18BF002070BD50
S3150000066040F20370FBE740F20570F8E768120020DD
S315000006709924002060120020982400205C1200209B
S31500000680581200206412002097240020F0B5421E64
S31500000690D11C034685B018D86E460D4C04F11007E0
S315000006A0354620686168083403C5BC422E46F7D13A
S315000006B004A90F3311F8014D12F8010F844204D139
S315000006C09A42F7D1012005B0F0BD0020FBE700BF3C
S315000006D032C20000F0B50368044603F16043B3F587
S315000006E0004F4FF000009FB029D8826A63681669F0
S315000006F09E4224D8B3F5002F21D8656B06F140033E
S31500000700AB425ED8B5F5002F5BD82846FFF7BEFF93
S31500000710002856D0284609F07EFE80B16B6973B179
S31500000720022B0ED1AB69C4F1040119444FF0FF321C
S31500000730204600F0DFFD244BC31A584258411FB033
S31500000740F0BD40F2046328460293FFF79FFF08B905
S315000007500020F4E700235F6B3846FFF797FF002879
S31500000760F6D0A6F150039F42F2D8284603A909F015
S3150000077059FE0028ECD0039DAE42E9D8AC42E7D83A
S31500000780B5F5002FE4D804A800F070FE21462A1B18
S3150000079004A809F0BFFF04A809F0BEFF00F07AFE26
S315000007A0044600F07BFE23460090294605F1200210
S315000007B004A800F0E1FD02900298B0FA80F040092A
S315000007C0BDE70120BBE700BFE320BBDE30B54FF03D
S315000007D0FF3289B005460C4600F08CFD0D4B984261
S315000007E015D140F2022000F007F91C22002101A8D1
S315000007F00BF003FC084B2946684600930BF0F6FC09
S315000008006846211F0BF0F2FC68460BF051FC0020F5
S3150000081009B030BDE320BBDE0100064310B5044637
S3150000082088B040F2022000F0E7F81C22002101A85F
S315000008300BF0E3FB054B2146684600930BF0D6FC14
S3150000084068460BF035FC002008B010BD00000343DD
S3150000085010B501F057FE01280DD1214B04205A6E28
S315000008604FF480231F494B6601F51041086250037F
S315000008705CBF1D4A53661D4BD3F88420110606D46F
S315000008804FF400621A67D3F88420D206FBD409F02D
S3150000089007FE00F09BF809F055FD09F055FD18B16B
S315000008A04FF4017009F07CFEFFF7AEFD044609F037
S315000008B04DFD34B940F2012009F072FE4FF401708B
S315000008C009E040F203739C42F4D0A4F20574012CB3
S315000008D0F4D840F2032009F063FE002010BD00BFEB
S315000008E0008000500090005000A0005000400050D2
S315000008F00123F7B58DF806308DF807302E4BD3F867
S3150000090094305A060FD500F083F8A0F2022080B288
S31500000910072808D8C923C340DB0742BF00238DF848
S3150000092006308DF807304FF490335B68013308D1F9
S315000009304FF4027000F060F800238DF806308DF851
S3150000094007309DF8073063B14FF49030FFF7C2FED1
S315000009508DF806009DF806301BB94FF4027000F0C2
S315000009604BF89DF806302BB34FF400454FF0FF329D
S31500000970124B134C9D6603F174431A664FF6FF72D1
S315000009805A660023C4F8D030BFF34F8FBFF36F8F82
S315000009904FF440370B4E032001F018FF0320376158
S315000009A001F034FF4FF49030074BF7609D66A0606E
S315000009B009F07AFD03B0F0BD0040005000900050F1
S315000009C000ED00E000A0004400A000504CF23C32D4
S315000009D0014B5A80704700BF000000204AF6C03025
S315000009E0044B5B8823F00F039BB21B1A58425841F5
S315000009F0704700BF00000020044A08B51080FFF7CA
S31500000A00EDFF10B94FF20F03538008BD0000002020
S31500000A104FF20F01084B5A888A4201D11888704755
S31500000A203AB91B8840F20220012B18BF4FF4007020
S31500000A3070474FF400707047000000204FF40032FA
S31500000A4008B5044B9A6601F0ADFCB0FA80F0400997
S31500000A5008BD00BF00900050072BF8B506460F46AC
S31500000A6014461D4601D90020F8BD0121202001F0C1
S31500000A702FF80121212001F02BF88CB144EA06035E
S31500000A809B07F0D14FF40032064B31469A66284652
S31500000A9023463A4601F0B0FCB0FA80F04009E3E79D
S31500000AA00120E1E70090005030B5024600230C25F6
S31500000AB0054905FB03F460180C59944203D0013331
S31500000AC00C2BF6D1002030BDDCC20000F0B50023AF
S31500000AD0082787B0CDE9013315463B46009704AA9F
S31500000AE0044609F085FD41F203039842064623D1E8
S31500000AF094F8433053B13A46E06C04A909F00AFE73
S31500000B0004AA3B461146A06C09F0F3FD059A049B26
S31500000B106A6094F843202B6052B9094A934207D081
S31500000B20084A934204D00822E06C04A909F0F2FDB9
S31500000B306B68236500236365304607B0F0BD00BFD0
S31500000B40F70A0AF7FC0404FC2DE9F04799465B68AE
S31500000B5004460F469046002B3ED011F003033ED1CB
S31500000B609B6A006E1B6981181D1DA9421BD31C338D
S31500000B70984218D2A842024638BF2A46994294BFE4
S31500000B80C2EB010AC2EB030A101A3E18C5F168004F
S31500000B9010443146524620440BF037FA5246FF21A4
S31500000BA030460BF02AFA226E0E4B9A420BD80E49AB
S31500000BB002EB0800884206D99B1AFA58C4F880202E
S31500000BC04FF0FF32FA50D9E9003542463946206ED9
S31500000BD0A847236E434423660020BDE8F08741F210
S31500000BE00200FAE704800100078001002DE9F041C8
S31500000BF000254FF0FF3704468846164603F02003CB
S31500000C0080F842301822FF21C0E91855A0F840505C
S31500000C1080F84350A0F8445080F84650C0F88870D9
S31500000C2068300BF0EAF988222946C4E91286C4F82E
S31500000C308070C4F8847004F190000BF0DEF9074B65
S31500000C40C4F82071C4E9463584F8245116B13046FB
S31500000C5000F00CFC0020BDE8F08100BF000101019E
S31500000C602DE9F04FA5B09946CDE91123002304469E
S31500000C700E464FF001082E9D1393139978E094F8D1
S31500000C8046300C2B70D8062B4BD908FA03F212F417
S31500000C90286F40F00B8212F4885F40F0B7810A2B70
S31500000CA066D1DFF8B4A3636D072B00F228814FF0FD
S31500000CB0080B382316AA2046CDE90188CDF800B0E6
S31500000CC011A909F095FC41F203030A900A9A9A4287
S31500000CD000F03F810A9B5BE0A3F10E02052A00F2B9
S31500000CE08F82DFE812F000030600F50032023202BE
S31500000CF0FE020027636D0F2B00F28A80102314AAD0
S31500000D00009320464023CDE9018711A909F070FC24
S31500000D1041F203030890089A9A4200F0CB80089BA0
S31500000D2036E0013B052B27D8DFE813F074006E0090
S31500000D300600C001DC0078010127636D072B00F275
S31500000D40DE80082314AA009320464023CDE90177CC
S31500000D5011A909F04DFC41F203030B900B9A9A423C
S31500000D6000F021810B9B13E0A3F10D02062AB3D9F3
S31500000D70494584D3002065E014AA204611A9FFF74F
S31500000D80A5FE41F203020590059B934208D0059B00
S31500000D90049341F20303049A9A423FF46EAF50E083
S31500000DA0159A1499226500226265A94A914240F07B
S31500000DB00581022284F84620EAE7082314AA009354
S31500000DC020464023CDE9018711A909F011FC41F223
S31500000DD003030690069A9A4201D0069BD8E7149B15
S31500000DE003F07F43B3F1407F05D0132384F84630E8
S31500000DF041F20903CCE7159BD90706D594F8423092
S31500000E0043F0010384F842300027636D072BD4D9E1
S31500000E10012300E1204614AA11A9FFF757FE41F26B
S31500000E2003030790079F9F420FD0079F41F20303DA
S31500000E300497049A9A423FF420AF049B0BB1002317
S31500000E40F370049825B0BDE8F08F1498FFF72CFED8
S31500000E5028B9132341F2080784F84630E6E74379B8
S31500000E6094F824219A4205D9132341F20E0784F8F7
S31500000E704630DBE7026877498A4205D00289D20705
S31500000E8048BF013384F8243194F84230D9070DD590
S31500000E90028994F84330920706D53BB1132341F2F9
S31500000EA0010784F84630C1E7002BF7D0037984F8B0
S31500000EB04630BBE7D4F848A000F0F4FA80230221BC
S31500000EC0CDE9000315AA0123504600F02BFA11E7DD
S31500000ED0226D0123A265002284F84330E26584F87E
S31500000EE04630CAE600213C2215A8149101270BF0D2
S31500000EF084F8D4E91432934204D884F8467041F257
S31500000F00030345E7009314AA40232046CDE9017761
S31500000F1011A909F06DFB41F203030990099A9A425F
S31500000F2001D0099B34E70DF1500C06F108030DF1D1
S31500000F30680E624603CA724518605960944603F10A
S31500000F400803F6D110681860337843F00103337054
S31500000F50CFE7337843F004033370179BB36273789B
S31500000F605F071CD50020236DCDF850A0C4F884304F
S31500000F7094F84530606643F0020384F84530EF6824
S31500000F806FB104222B6814A9B847606E2B685A46C5
S31500000F90EF6816A90830B847636E103363660B23F3
S31500000FA084F846307FE63378159A43F002033370AF
S31500000FB0149B7360236D083B73622AB1132384F874
S31500000FC0463041F20103E3E6042384F8463094F800
S31500000FD04530626643F0010384F84530ADE60423EC
S31500000FE014AA009320464023CDE9017711A909F000
S31500000FF0FFFA41F203030C900C9A9A4201D00C9B23
S31500001000C6E6226D149B042A01D923660127636D67
S31500001010032BE4D9092384F8463070E7002363667E
S3150000102007235CE79F4251D89F4228BF1F464023B3
S3150000103014AA2046CDE90188009711A909F0D8FA2B
S3150000104041F203030D900D9A9A4210D00D9B9FE634
S31500001050EB17A603F90707F9EB17A65E402F28BF83
S3150000106040279F4228BF1F4627F00307DFE794F873
S3150000107046B0BBF1070F2FD0042FC7F1040A88BF73
S315000010804FF0000A14AB5246FF21D8190AF0B5FFFB
S31500001090BBF1090FBA442DD12B465246204614A95E
S315000010A0FFF752FD0D900D9B002BCFD1D4E91473A1
S315000010B09F427FF6ADAEFF1ADDE912329B1A94F815
S315000010C04020032F1344ADD9032BC7D8204611A9BE
S315000010D009F06DFA00235BE6D5F808A0BAF1000F17
S315000010E0CAD02B683A46606E14A9D047636E3B445B
S315000010F06366DBE7BBF1040F1DD173789807D5D57E
S31500001100EB68002BD2D0626E042A0BD80AEB0203DE
S31500001110062B07D915AB9B1A1A68C4F884204FF022
S31500001120FF321A60EF682B685246606E14A9B84702
S31500001130636E5344DCE7BBF10B0FB7D173785907E5
S31500001140B4D5EF68002FEED1B0E700218A6A496B6B
S315000011501269503A91423FF634AF112B0FD194F8F1
S315000011601831002B7FF454AE41F206030E930E9A0B
S315000011709A4202D1132384F846300E9B08E694F86F
S315000011804430002B7FF444AECDE90133402314AA4A
S315000011900093204611A909F02BFA41F203030E90A1
S315000011A00E9A9A42E9D1E06C09F0B6FA94F8183131
S315000011B0A3B104F1B4030093E06C04F194031CAAF8
S315000011C014A900F0D9F80E900E9BA3B10023F3707A
S315000011D0132384F8463041F20603D9E5D4F84CA02F
S315000011E000F058F9074600F059F93B4600901CAA52
S315000011F0504614A9E5E70123F37084F8443007E666
S3150000120000234FF00408CDE9013314AA40232046F9
S31500001210CDF8008011A909F0EBF941F203030F9014
S315000012200F9A9A4202D00F9B04930AE6D4F88820BC
S315000012302E4B9A4205D0132384F8463041F205031B
S31500001240F2E70123F37094F84530DA0707D5EF6823
S315000012502FB1424640462B6804F18401B84794F802
S3150000126045309B0707D5EF682FB104222B6810463F
S3150000127004F18401B847236E63B36F6857B34FF028
S31500001280FF3304F180080422414610A810930AF0A7
S315000012908AFE20B1042241462B681548B84704F15E
S315000012A068090422494610A80AF07DFE90B1002381
S315000012B09B6A1422D3F8108004F16C0108F108002F
S315000012C0D5E90037B847D5E900370422494608EB87
S315000012D00200B8470123B3700E2384F8463000237A
S315000012E0A2E70023F37041F20700ABE5E320BBDE83
S315000012F00480010030B50824094B00255C660124F2
S3150000130003F5FE235C6001449D601A61DC6088423F
S3150000131001D1586A30BD10F8012B1A62F7E700BFF9
S3150000132000900050F8B516464FF400521D46114B7A
S3150000133004469A660222C3F860220F4609F076FA3E
S31500001340DDE90612204609F075FA002384F83870A4
S3150000135063623368C4F839307368C4F83D30B368E3
S31500001360C4F841302B0C6DBA84F84530A4F84650C9
S31500001370F8BD00BF009000502DE9F041B0B0144612
S315000013800D461A460646369B002867D0002965D0CA
S31500001390002C63D0002A61D0002B5FD006214FF4C9
S315000013A0005006912F4920AF88660320C1F86002DD
S315000013B00021BE4609910C910F9105F12008F446D3
S315000013C0286869680835ACE803004545E646F6D165
S315000013D00DF1A00C04F1200E654620686168083402
S315000013E003C57445AC46F7D10DF1400C654602F1D4
S315000013F0200E2C4610685168083203C472452546F3
S31500001400F7D118AC03F1200522461868596808334D
S3150000141003C2AB421446F7D14023CDE90A730893C1
S3150000142020230AAA0E9303AB07CACDF81CC00D965B
S3150000143083E8070007AB93E807008DE807000DABCC
S315000014400ECB094809F0D1FC0690069B40F20460D9
S31500001450002B08BF002030B0BDE8F08140F20160EB
S31500001460F9E700BF009000503CC400004FF4005262
S31500001470074B10B59A6602220446C3F8602209F0AB
S315000014804EF92046BDE81040002109F04CB900BFD6
S3150000149000900050004870474CE307000048704732
S315000014A06CE307000048704786E207002DE9F34722
S315000014B01446DDE90A920D461F4600284DD14CB36D
S315000014C013683F2B2AD8516851B32549002F14BF02
S315000014D0B846884603F03F061B19136022BF5368BF
S315000014E001335360FEB93F2C0ED9A3092A46009357
S315000014F041463B46002009F02FF924F03F031D44E6
S3150000150004F03F0434B100262246294609EB0600C2
S315000015100AF07BFD002002B0BDE8F087B846D9E7A7
S31500001520DFF83C80D6E7C6F1400A5445ECD329469D
S31500001530524609EB06000AF068FD01232644009393
S315000015404A463B4641460020A6F1400409F004F90C
S315000015503F2C5544D6D9B846C7E70248DBE700BF5B
S31500001560ACC3000080AFFFFF2DE9F04117461468B9
S3150000157086B01E46E3008DF80F3063098DF80E30F5
S31500001580630B8DF80D30630D8DF80C3053680546EE
S31500001590DA0002EB54728DF80B2004F03F045A096E
S315000015A0372C8DF80A204FEA53324FEA53538DF801
S315000015B00920884694BFC4F13802C4F17802CDE907
S315000015C000178DF808300D4903460020FFF76EFF1F
S315000015D008222B460020CDE900870DEB0201FFF71C
S315000015E065FF284605F1200350F8042B984246F87B
S315000015F0042BF9D1002006B0BDE8F0816CC30000D1
S31500001600BFF34F8F0549064BCA6802F4E0621343E5
S31500001610CB60BFF34F8F00BFFDE700BF00ED00E0DA
S315000016200400FA052DE9F04104460C254FF00108A7
S31500001630124E0CB314F001000BD0002024F001046C
S3150000164005FB00625768002FF3D09168C0B2B84717
S31500001650EFE72246013020284FEA520201D0D30795
S31500001660F8D508FA00F20F2824EA0204E8D910385F
S3150000167005FB0062B432E5E7BDE8F0816C1200209C
S3150000168010B5044608B30378E3B1013BDBB2022B85
S315000016901DD8104AD35C6278D340DB0717D50AF011
S315000016A09FFD0122617823788A4030214B4341F225
S315000016B0100103F1A04303F570335A500AF08BFD75
S315000016C0002010BD40F2FF13E5E72220F9E72120B4
S315000016D0F7E700BFCCC3000010B5044608B3037893
S315000016E0E3B1013BDBB2022B1DD8104AD35C627812
S315000016F0D340DB0717D50AF073FD01226178237802
S315000017008A4030214B4342F2100103F1A04303F516
S3150000171070335A500AF05FFD002010BD40F2FF13EF
S31500001720E5E72220F9E72120F7E700BFCCC3000058
S3150000173008B500F0EFFE054B00F0553020F05020C4
S31500001740C3F82004BDE80840FFF76CBF00E0035073
S3150000175008B500F0DFFE054B00F0AA3020F0A0200F
S31500001760C3F82004BDE80840FFF75CBF00E0035063
S31500001770044BD3F88420D206FBD4D3F88400C0F3FC
S31500001780811070470040005038B5184B0546D3F815
S3150000179024010C4600F00700062823D8DFE800F0F5
S315000017A0040A121A1E0E1600012305B1286004B1A0
S315000017B0236038BD0AF036FC0523F6E70AF032FC52
S315000017C00623F2E70AF068FC0323EEE70AF064FC5E
S315000017D00423EAE70AF05CFC0223E6E70AF0EAFCE7
S315000017E00723E2E700231846DFE700BF008000502A
S315000017F038B5104B0546D3F800310C4603F0030309
S31500001800022B0BD0032B0DD0012B0FD10AF044FC79
S31500001810032305B1286004B1236038BD0AF042FCF9
S315000018200823F6E70AF0C6FC0723F2E701230020A7
S31500001830EFE700BF0080005038B5104B0546D3F8DF
S3150000184020310C4603F00303022B0BD0032B0DD0E3
S31500001850012B0FD10AF0E6FB052305B1286004B180
S31500001860236038BD0AF018FC0323F6E70AF010FCE3
S315000018700223F2E701230020EFE700BF00800050BB
S3150000188038B5104B0546D3F840310C4603F0030338
S31500001890022B0BD0032B0DD0012B0FD10AF08CFCA1
S315000018A0092305B1286004B1236038BD0AF0FAFBAC
S315000018B00823F6E70AF083FC0B23F2E70123002056
S315000018C0EFE700BF0080005038B5104B0546D3F84F
S315000018D060310C4603F00303022B0BD0032B0DD013
S315000018E0012B0FD10AF068FC092305B1286004B169
S315000018F0236038BD0AF0D6FB0823F6E70AF05FFC42
S315000019000B23F2E701230020EFE700BF0080005021
S3150000191073B50D4600210E4B0191D3F88041064662
S3150000192004F00304012C09D0022C0CD00C460EB195
S31500001930019B336005B12C6002B070BD01A8FFF7B2
S315000019407BFF0F24F3E70AF0A3FB0190EFE700BF4C
S315000019500080005038B5104B0546D3F840320C468F
S3150000196003F00303022B0BD0032B0DD0012B0FD159
S315000019700AF022FC092305B1286004B1236038BDB2
S315000019800AF090FB0823F6E70AF019FC0B23F2E7AE
S3150000199000231846EFE700BF0080005038B5144B0F
S315000019A00546D3F800020C4600F0070004281BD8B1
S315000019B0DFE800F003090D111500012305B12860C9
S315000019C004B1236038BD0AF0F7FB0923F6E70AF0F5
S315000019D069FB0823F2E70AF0F2FB0B23EEE70AF0B5
S315000019E041FB0E23800AE9E700231846E6E700BF1D
S315000019F00080005010B40D4C0B46D4F8204204F081
S31500001A000304012C0AD0022C0CD008B1002101607D
S31500001A100BB100221A605DF8044B70475DF8044B69
S31500001A20FFF70ABF5DF8044BFFF72ABF008000509E
S31500001A30B0F5207F1FD009D8B0F5007F15D003D8A8
S31500001A4068B1B0F5C07F0AD000200CE0B0F5607F29
S31500001A50FAD10B4BD3F88000C0F3011003E0084B1A
S31500001A60186FC0F3033001307047054BD3F8900070
S31500001A70C0F30460F7E7024B186FC0F38020F2E76B
S31500001A80008000504FF400320E4B014610B5002086
S31500001A909A66FFF7CDFF484341F671320A490B4B70
S31500001AA0884294BF00200120DC69DA639A6822F438
S31500001AB0401242EA00529A60E20344BF0022DA630F
S31500001AC010BD00BF00900050005A62020000035093
S31500001AD0420910B50FD0012A0FD00A4B0A4C022A30
S31500001AE018BF234600F01F0049B103F580530122B9
S31500001AF082401A6010BD1346F4E7044BF2E703F583
S31500001B000053F4E768800050608200506480005003
S31500001B101FB50021B0F5807F0446019100F00681D3
S31500001B2000F29D80612800F295801F2805D80028C4
S31500001B3040F092800AF096FADCE0A0F12004412CF5
S31500001B4000F28A8001A353F824F000BF351B000081
S31500001B50F91C0000351B0000F91C0000191D0000CF
S31500001B60191D0000191D0000191D0000F91C0000B8
S31500001B70F91C0000D31C00008D1C00004F1D000046
S31500001B80591D00008D1C0000F91C0000F91C000006
S31500001B90F91C0000591C0000591C0000591C0000CB
S31500001BA0591C0000591C0000591C0000231D000090
S31500001BB0AF1C0000F91C0000F91C0000F91C000015
S31500001BC06D1D0000631D0000F91C0000591C00007B
S31500001BD0591C0000591C0000591C0000591C00002B
S31500001BE0591C0000591C0000591C0000591C00001B
S31500001BF0591C0000591C0000591C0000591C00000B
S31500001C00351B0000591C0000351B0000351B000069
S31500001C10351B0000191D0000591C0000591C00004E
S31500001C20591C0000591C0000591C0000591C0000DA
S31500001C30591C0000591C0000591C0000591C0000CA
S31500001C40591C0000591C0000591C0000351B0000DF
S31500001C50351B000080284BD0019804B010BDB0F5AC
S31500001C60A06F5ED028D8B0F5607F50D019D8B0F5F7
S31500001C70007F4CD004D8B0F5C07F3FF45BAFEBE7F4
S31500001C80B0F5207F38D0B0F5407FE5D10AF0EAF90B
S31500001C9002464FF42070FFF7CBFEB2FBF0F252087B
S31500001CA033E0B0F5806F37D0B0F5906FD4D1002116
S31500001CB001A8FFF769FDCFE7B0F5E06F51D00DD869
S31500001CC0B0F5C06F43D0B0F5D06F45D0B0F5B06F6A
S31500001CD0C2D1002101A8FFF71BFEBDE7B0F5F06FEA
S31500001CE044D0B0F5086FB7D101A8FFF781FDB3E77F
S31500001CF00AF09EF90190AFE70AF0B4F902464FF4F4
S31500001D002070FFF795FEB2FBF0F20192A4E70AF00D
S31500001D108FF902462046F4E7002101A8FFF78CFD63
S31500001D209AE7002101A8FFF765FE95E74FF0E0234B
S31500001D3002911B695B0705D50AF094F90290029B94
S31500001D40019389E703A902A8FFF79AFDF7E70021A7
S31500001D5001A8FFF795FD7FE7002101A8FFF71EFE0A
S31500001D607AE7002101A8FFF7F5FD75E7002101A834
S31500001D70FFF7AAFD70E700BF08B58020FFF7C8FE91
S31500001D80034B98429EBF4FF48032024B1A6708BD40
S31500001D90005A620200A000501FB503460020B3F5AA
S31500001DA0807F01906FD027D8382B00F082800BD827
S31500001DB0243B092B0FD8092B0DD8DFE803F05F5F12
S31500001DC05F5F0C0C5A0C3675522B57D007D83D2B3B
S31500001DD03AD03E2B72D0019805B05DF804FB802BFB
S31500001DE0F9D1394B1B6F03F00703013B032BF2D8E4
S31500001DF0DFE803F03D36393BB3F5D06F54D019D840
S31500001E00B3F5A06F55D00AD8B3F5806F36D0B3F5C9
S31500001E10906FE0D1002001A9FFF7B6FCDBE7B3F530
S31500001E20B06F26D0B3F5C06FD5D1002001A9FFF75A
S31500001E3027FDD0E7B3F5006FECD00AD8B3F5E06F15
S31500001E403CD0B3F5F06FC6D1002001A9FFF73CFDE9
S31500001E50C1E7B3F5086FBED101A9FFF7C9FCBAE720
S31500001E6005230193B7E70323FBE70723F9E70223DB
S31500001E70F7E7002001A9FFF74BFDACE7002001A919
S31500001E80FFF7DAFCA7E74FF0E02302901B695B0738
S31500001E9005D50AF0E7F80C230393039BE1E703A9B2
S31500001EA002A8FFF7EDFCF8E7002001A9FFF776FD91
S31500001EB091E7002001A9FFF79DFD8CE7002001A90D
S31500001EC0FFF748FD87E700BF008000504FF400226F
S31500001ED0034B5A66012203F580439A62704700BF9E
S31500001EE000900050F8B504468020FFF755FF032800
S31500001EF000F087804FF40022424B02215A6645F6D5
S31500001F000E03414AC2F88030404B9962012103F525
S31500001F1080539962936DD903FCD4D4E900131B0551
S31500001F2043EA0163E17B94F820500B43217BE77E73
S31500001F3043EA0143617B6D0143EA0133A17B43EA36
S31500001F40811313619169D4E904031B0643EA806394
S31500001F5001F000410B43A17E94F823000B43217E40
S31500001F6043EA0143617E43EA01239361136AE6690A
S31500001F7023F00D0394F8221043EA8703002E2DD197
S31500001F801362966A94F8213045EA031326F0330566
S31500001F902B4343F0010393621D4D1B4B9A6D35EAAB
S31500001FA00202FBD10222194DAA621A659A6D5200ED
S31500001FB0FCD41A69A56822F4700242EA05521A6135
S31500001FC04FF00042114B9A6119B9022203F5805372
S31500001FD09A6278B901220F4B9A620BE0334343F0C1
S31500001FE008031362936A23F0330303432B4343EA44
S31500001FF04103936294F824301BB1034B064AC3F89D
S315000020008020F8BD0090005000C0005000D0005065
S315000020100300014000E00050F1A7FFFF014B93F9D8
S31500002020000070479B240020014B1880704700BFBA
S315000020303C250020B0F5207F10B50C4642D008D8CC
S31500002040B0F5007F33D003D888B1B0F5C07F0ED08D
S3150000205010BDB0F5607FFBD11F4A4C1ED2F8803010
S3150000206023F0300343EA0413C2F88030F0E708F0A7
S31500002070B6FB08F0C2FB4FF48031184B164A1967BD
S31500002080136F013C23F4704343EA0433136709F0EA
S31500002090E9FF0446FFF76CFBC0F10201204608F099
S315000020A0A6FB00F035F8BDE81040FFF765BE0A4A0A
S315000020B04C1ED2F8903023F0F85343EA0463C2F87A
S315000020C09030C5E7044A4C1E136F23F4806343EA3D
S315000020D084231367BCE700BF0080005000900050C7
S315000020E008B50121022000F045F84FF42070FFF7F3
S315000020F09FFC054B187008F072FB08F07EFB4FF44E
S315000021008032024B1A6708BD9A24002000900050C6
S3150000211008B54FF4C070FFF7FBFCBDE80840044962
S31500002120884294BF012102214FF42070FFF782BF3D
S3150000213080F0FA0238B5044609F094FF0546FFF729
S3150000214017FBC0F10201284608F051FB01210020CF
S3150000215000F050F82CB1FFF7DBFFBDE83840FFF781
S315000021600BBE034B4FF420701978FFF763FFF4E7BB
S315000021709A240020F8B504461C4BD3F88420D106D7
S31500002180FBD4D3F88430C3F381139C422CD009F0DE
S315000021904FFF012C064602D1214608F028FB0AF023
S315000021A016F84FF00072124B07465A66204608F0A2
S315000021B029FB4FF480630D4D621E93402B676B6EB7
S315000021C09A0103D4D5F884309B060AD5384609F01F
S315000021D0F9FF022C08D13046BDE8F840002108F08E
S315000021E006BBD5F88430EAE7F8BD00BF00400050D2
S315000021F00060005010B50C4608B909F019FF074BEE
S3150000220021461B783BB1064B984204D80120BDE815
S315000022101040FFF7AFBF0220F9E700BF9C24002063
S31500002220005A62024FF0004238B5264B26495A66DC
S3150000223001224A604AF6CD3103F50B235D6C196421
S31500002240154030BB9968C9070BD4002401221F4BE7
S315000022505A6015B11E4B1F4A1A6409F06CFA2046E3
S3150000226038BD1A498A601C4AD96ACC0705D49042FF
S3150000227001D10724EAE70130F6E79042E5D1F8E715
S315000022800132DC6A14F0080406D08A42F8D1072429
S31500002290DFE700221049F4E78A42F8D020220B4BF0
S315000022A00B495A620122A3F580539A6023460A4AD3
S315000022B0486A800603D49342E9D00133F8E7934293
S315000022C0C7D1E4E700900050005009500060095063
S315000022D0004009503254FFFF40420F004FF00042C9
S315000022E038B5174B174C5A66012203F50C235A6072
S315000022F04AF6CD33656C2364437893401343124A00
S31500002300D363C3788178A2689B0043EA011322F065
S3150000231074021343A3600279837943EA022323619B
S315000023204279C37943EA022363610078FFF77AFFB3
S31500002330EB0744BF054B236409F0FDF9012038BDC6
S315000023400090005000400950004000503254FFFFFA
S31500002350F0B5114A114C124E00F00105E3695F0712
S3150000236013D40DB9334213D103EA00078F4207D1C4
S315000023700B4A1A40002A0CBF00206FF00100F0BD86
S31500002380013AEBD16FF00200F9E74FF0FF30F6E7C4
S315000023906FF00100F3E700BF80969800000003503D
S315000023A0020001004FF4003238B50F4B0F4C9A660D
S315000023B041F671330122E569E3630D4B0021DA60D2
S315000023C0022360612120236105F48035FFF7C0FFF9
S315000023D010B92120FFF7BCFF0122064BDA600DB1D0
S315000023E00023E36338BD00BF009000500000035097
S315000023F000100350002003502DE9F04F01274FF441
S31500002400402530262C4CDFF8BCC0DFF8BCE0CCF809
S31500002410047044F8205000244FF4003506FB00E613
S31500002420F46534663467254CDFF8A090A56641F65E
S31500002430713504F51C34D4F81C80E563E568DFF8D3
S3150000244090A03D43E56007FA00F04BB9E26818F446
S31500002450803F22F00102E26029D10020BDE8F08F22
S3150000246001F5005505EA09056D1A9D4228BF1D466E
S315000024706161D4F81CB0AF081BF0040F19D1013FFD
S315000024803F0147F060577766B266C6F86CA0CCF895
S315000024902400DEF834703842FBD0094F29447863B3
S315000024A00427CCF828002A4427615B1BCDE7E363A9
S315000024B0D3E74FF0FF30D1E70040045000900050C2
S315000024C000200450001004500000045000E0FFFFFC
S315000024D0180003504FF48032064B5A6603F5E62384
S315000024E05B69C3F38512827003F03F021B0B4270D7
S315000024F00370704700900050014B986CD96C704780
S315000025000080E00F024B1868C0F30740704700BF19
S315000025100080E00F034BD3F82424D3F820041040A6
S31500002520704700BF00C0035070B5044609F037F984
S31500002530064630B90FCC044D0FC594E8030085E874
S315000025400300304670BD00BFD413002047F6FF736A
S315000025509A42F0B56FD002296FD8394B5B5C012BDC
S315000025606BD8384DDF0005EBC30415F83330A1787E
S31500002570012B13D10025E078401AA84202D808445E
S31500002580C0B2F0BD431B6668A0EB530336F9136077
S315000025909642D4BF1D4603F1FF30EEE7606800287F
S315000025A0EFD0B0F90040944204DBB0F90240944207
S315000025B0B8BF144683883D44FF2B19BFC8224FF08D
S315000025C0280CB0F90620B0F908C0A2EB04030CBF32
S315000025D00126002693FBFCF333446E781BB29E4221
S315000025E001DD002B01DA731E1BB24FF47A7C013336
S315000025F09BB2071D5D1E2DB24FEAC50E00EBC50549
S31500002600EA88AD689E4214FB025222EAE27202F1A7
S315000026105C02B2FBFCF204DD37F83350013395421D
S31500002620E8D200EB0E039888904228BF10468842F5
S3150000263038BF0846A4E7FF20A3E70020A1E700BFB4
S31500002640CFC30000D413002008B50448FFF76CFF81
S31500002650BDE80840012009F0A6B800BF58C6000032
S31500002660004870473E250020084B09495A6E4FF432
S315000026708033D2034B6601F5E621D1F8040658BF34
S31500002680044A00F1805058BF5366704700800050DE
S315000026900090005000A0005010B5FFF7E5FF00F1D4
S315000026A0A043A3F58043B3F5606F17D802680C4BBF
S315000026B09A4213D103690533B3F5007F0ED2002287
S315000026C011469A4205D350F82300431A58425841FE
S315000026D010BD50F8224001326140F2E70020F7E7D2
S315000026E0DEC0ECE54FF40052034B00209A6603224D
S315000026F0C3F86022704700BF009000504FF40052AC
S31500002700034B00209A660322C3F86022704700BF7D
S3150000271000A0005007B56B46054A1068516803C310
S315000027206846FFF7DBFD002003B05DF804FB00BF41
S31500002730D2C3000030B58BB06C46174D0FCD0FC419
S315000027400FCD0FC495E8030084E80300134BD3F8BC
S315000027504C2112031CD5A3F5FE431C884FF6FF73CC
S315000027609C4208BF8C248DF81940FFF757FC204483
S3150000277080F308008DF818000948FDF735FE684615
S31500002780FFF7B0FB3220FFF74FFC00200BB030BD47
S31500002790D3F85041E4B2E6E7DCC300000080E00F66
S315000027A000F049020028ACBF00F16040064B4FEA3A
S315000027B00111C9B2ABBF00F5614000F00F0080F80F
S315000027C000131954704700BF14ED00E000280CDB1D
S315000027D001220649430900F01F008240203341F8D8
S315000027E02320BFF34F8FBFF36F8F704700E100E0E8
S315000027F0002807DB01234109034A00F01F0083403C
S3150000280042F82130704700BF00E100E0002808DBF5
S3150000281001224309034900F01F008240603341F85A
S315000028202320704700E100E060B5054619B1013983
S31500002830B1F5806F0FD2094EF06810F48030FBD1ED
S3150000284043EA012312072B4302F08052134343F05D
S315000028500043736060BD0120FCE700BF0020025CFE
S315000028600122054B9A60DA68D203FCD4D86820F0BE
S315000028700F000004000C70470020025C0322024B8C
S31500002880186019615A6370470000025C82B01FB578
S3150000289007930A9B04AC8B4228BF0B4604E907004A
S315000028A01048D100079948BF03330160099948BF12
S315000028B023F0030323F0704301F0E041194341F094
S315000028C000518160002102F0E042019C1A4342F06F
S315000028D00052C16004618261416304B0BDE81040EA
S315000028E002B070470000025C3F22034B1A631022BD
S315000028F0DA6103229A6370470000025C024AD36BD6
S315000029009B07FCD4704700BF0000025C044B9B6A27
S3150000291013F0240F14BF012000208000704700BF71
S315000029200000025C08B5FFF7F1FF064BDB6B23F4F2
S315000029307F4323F0EF0303431EBF0122024BC3F87C
S31500002940FC2F08BD0000025C00F0FF3F4368182B17
S315000029500AD0202B1DD0102B2BD1174BD3F80434C3
S31500002960DB010AD401207047134BD3F804349A01D3
S31500002970F8D50B6843F008030B6003680F4A9342CF
S3150000298010D10B6843F040030B6000234360002026
S315000029907047094BD3F804345B01E3D50B6843F069
S315000029A00403E9E7064A9342F1D10B6843F080033A
S315000029B0EAE70720704700BF0000025C9E24002063
S315000029C09D2400200B4607B50749D1F80414C90712
S315000029D008D5002100920246084600F033F803B0FD
S315000029E05DF804FB0120FAE70000025C0B4607B520
S315000029F00749D1F80414C90708D5009201210246F7
S31500002A00002000F01FF803B05DF804FB0120FAE790
S31500002A100000025C1FB50A4CD4F8044464070CD5C8
S31500002A20CDE900120021069C0222CDE902340346BC
S31500002A30084600F031F804B010BD0120FBE700BFE6
S31500002A400000025CF0B51C465B6815468DB01A079F
S31500002A50129E1AD1CBB17268934216D10C4B0D4A15
S31500002A6053F8217009AB07CA83E807001A462946BE
S31500002A70CDE90533CDE90333CDE90163009447F48D
S31500002A80807008F0DCF80DB0F0BD0720FBE700BF52
S31500002A9034C4000004C400002DE9F0418CB0DDE927
S31500002AA0127C7C681E46DDE9143E200728D13CB323
S31500002AB0DCF80400844223D15868102820D1DEF8BF
S31500002AC0040010281CD10F4809AC50F821500E49BB
S31500002AD051F822800D4A07CA84E8070045EA080033
S31500002AE022463146CDE9054ECDE90344CDE901C480
S31500002AF0009740F0300008F0A2F80CB0BDE8F08175
S31500002B000720FAE734C4000010C4000004C4000023
S31500002B100138C0B206289ABF014B185C00207047E6
S31500002B2017C500000138C0B206289ABF014B185CD1
S31500002B300020704710C500002DE9F04FBBB080465D
S31500002B4003A880E80E001E467A4B1746D3F80024E9
S31500002B508A46D4069DF8109103D401203BB0BDE807
S31500002B60F08F08F1FF32062A6DD8DFE802F004196B
S31500002B701F252B313700D3F80C34D807EDD50123A8
S31500002B8007930023B9F1010FCDE908332CD0B9F131
S31500002B90020F5AD04046FFF7C5FF6324054631E0D1
S31500002BA0D3F80C349907D8D50223E9E7D3F80C34C7
S31500002BB05A07D2D50423E3E7D3F80C341B07CCD548
S31500002BC00823DDE7D3F80C34DD06C6D51023D7E796
S31500002BD0D3F80C349C06C0D52023D1E7D3F80C34A7
S31500002BE05806BAD54023CBE7524BD3F80C34D90359
S31500002BF0B3D5079B404643F4C0630793FFF788FFAE
S31500002C000324054613230422009307A94FF000531B
S31500002C1012A807F0D2FF5146009446F000533A46F8
S31500002C2007F0CBFF4FF0000B04465E46DDF814A11B
S31500002C30469B9B452CD1B9F1030F42D14046FFF785
S31500002C4071FFB84237D0072088E73A4BD3F80C24F7
S31500002C50D20382D5D3F80C349B037FF57EAF97B1B0
S31500002C607C423946374604F00304079B404643F44A
S31500002C70E0630793FFF74CFF24023E4605460F46E6
S31500002C8044F0A304BEE704210DF1200A0C46ECE74C
S31500002C90DAF8042016444AB1032300932046DAF8F2
S31500002CA00830DAF8001007F088FF04460BF1010B34
S31500002CB00AF10C0ABCE7404608F0E1F80138304258
S31500002CC0C1D17EBB032332462046009308A9334672
S31500002CD007F073FF04260446103C204607F082FFE7
S31500002CE02046314607F089FF489BAB4228BF2B465A
S31500002CF01C46EBB10023224600934799499B0AA83C
S31500002D0007F05BFF2A1B04D000231946009307F047
S31500002D1054FF103807F066FF12A80AA907F042FF11
S31500002D2000201BE716F0030618BFC6F10406D3E71A
S31500002D300AA8E7E70000025C014808F07EB900BF78
S31500002D40EC130020014808F04DB900BFEC13002039
S31500002D50014800F053B800BFEC1300200A460146B4
S31500002D60014800F07BB800BFEC130020014800F0DA
S31500002D70B5B800BFEC1300201FB50A79064B0292C6
S31500002D800A6808310192022200920CCB08F033FA4D
S31500002D9005B05DF804FB00BF2CC5000030B50B790B
S31500002DA085B00333029301F14403019302230C46D9
S31500002DB00546114A009314310CCA08F01CFA238AFE
S31500002DC004F12C010293E36828460193237A0093C9
S31500002DD094E80C0008F00FFA0546237AA4F845009B
S31500002DE02279216884F8443004F1470009F00DF98E
S31500002DF0284605B030BD00BF24C5000038B50546DD
S31500002E00124B134C94E8030083E803001946284646
S31500002E10FFF7B2FFD4E9020110220E4B83E803004C
S31500002E20194628461A72FFF7B9FFD4E904010222AF
S31500002E30094B18341A7283E80300DC6019462846E9
S31500002E401A82BDE8384008F0D6B800BFF01400205A
S31500002E5040C50000981400206C140020F8B5044604
S31500002E600D4B0E4D0F46D5E9070183E803001946C1
S31500002E7020461646FFF780FFD5E909010222084BD6
S31500002E801A7283E80300DF60194620461E82BDE8F9
S31500002E90F840FFF783BF00BF4C14002040C5000078
S31500002EA0F413002010B50C4630B907F052FA034B64
S31500002EB0186023600423A380002010BD4017002063
S31500002EC010B50C4630B907F042FA034B1860236080
S31500002ED00423A380002010BD441700202DE9F743EA
S31500002EE006466D464FF00809404C414B414F94E869
S31500002EF0030083E8030019463046FFF73DFFD4E997
S31500002F00020187E8030028463B4987F8089008F045
S31500002F106DF895E8030007F10C0383E803003946D2
S31500002F203046FFF73BFFD4E904010C234FF00208BB
S31500002F30324F87E80300284631493B7208F056F8BD
S31500002F4095E8030007F10C0383E803003946304691
S31500002F50FFF724FFD4E906012A4B2B4A83E8030036
S31500002F601946304683F80880DA60A3F81090FFF718
S31500002F7015FFD4E90801254B254A264FDA600122C0
S31500002F8083E80300194630461A8283F80880FFF763
S31500002F9005FFD4E90A0187E8030028461E4987F899
S31500002FA0088008F023F895E8030007F10C0383E88E
S31500002FB003003946194F3046FFF7F0FED4E90C01FD
S31500002FC087E803002846164987F8088008F00EF8B7
S31500002FD095E8030007F10C0383E803003946304601
S31500002FE003B0BDE8F043FFF7D9BE00BFF4C500004B
S31500002FF020170020C81600207BB0000070160020A5
S3150000300063B0000018160020EAC50000C0150020B5
S31500003010E9C5000068150020C12E0000101500202B
S31500003020A52E00007FB500230130CDE9043380B220
S31500003030054BCDE90101694604200093039208F08F
S31500003040FBF807B05DF804FB9F2400201B22014B10
S315000030501A80704778240020064B10B401241A7198
S3150000306000221C7058705980042011465DF8044BEC
S31500003070FFF7D8BF9F2400200322044B1A700022BA
S31500003080A3F8010011460220FFF7CCBF9F240020C1
S3150000309082B00DF1080C0CE90C00064B05225870A5
S315000030A003201A7059809DF80420009902B0FFF79A
S315000030B0B9BF00BF9F2400200722054B1A700022CB
S315000030C0A3F80100A3F8031004201146FFF7AABFD6
S315000030D09F2400200A460B21024B1970014600204E
S315000030E0FFF7A0BF9F2400201322034B1A70002273
S315000030F011461046FFF796BF9F24002010B40924FE
S31500003100044B1C70941C5C7058805DF8044B0320C3
S31500003110FFF788BF9F24002030B40C4611251146C6
S315000031201A46054B1D70151D5D7058809C80052044
S3150000313030BCFFF777BF00BF9F24002038B50023BF
S31500003140074D013989B204466B8000F03BF8024610
S3150000315028B169882078BDE83840FFF77DBF38BDC3
S3150000316078240020024610B5F8B1114B19688888FA
S3150000317090421AD398880024904281BF01200968A2
S31500003180988099609868998820B904B198604FF63C
S31500003190FF7203E08A4203D10CB198609A8010BD99
S315000031A001310124006889B2EEE70020F7E700BF8D
S315000031B0481700204FF6FF72014B18609A8070473F
S315000031C0481700202DE9F04704780546122C0E46D4
S315000031D088B017D8012C18D9A31E102B15D8DFE8F4
S315000031E013F0160014002700140047001400D10045
S315000031F014008000140014001400140014000901C7
S315000032001400A400522C00F0AC8006242CE0022905
S3150000321040F04681B0F80140B4F5007F28BF4FF476
S3150000322000742046FFF728FF9E4B1C8000241BE0FD
S31500003230042919D1B0F8017006ADBEB22946304650
S3150000324007F057FF044618B1964B5F800A240BE03F
S315000032509DF81C303146022B18BF022095E80C0061
S3150000326008BF0120FFF714FF204608B0BDE8F0872D
S3150000327002278E1F00F10508C31DB6B20196009302
S315000032808DF81470CDF81080B0F803104246059BF7
S31500003290B0F8010007F03AFF4FF6FF76B042044659
S315000032A006D1AA786B7843EA02237E4A5380CDE79B
S315000032B00023CDE90033CDF818808DF81C7008ABDB
S315000032C00130314613E90C0080B207F01FFF0146BA
S315000032D0B0421CBF00F1FF3189B22046FFF7ECFE79
S315000032E0A4E7022940F0DC80B0F8010007F060FF97
S315000032F06C4E044628B16B78AA7843EA02237380A1
S31500003300B2E733880146013BADF81030B5F801004D
S3150000331004AB06AA07F05EFF04460028EBD1BDF811
S3150000332010100698FFF7D6FE9EE70821B0F80100B8
S3150000333007F03EFF044630B1AA786B7843EA0223D1
S31500003340584A538090E7B31E01469BB2B5F8010078
S31500003350EA1C07F014FF04460028EDD1FFF7C4FE6F
S3150000336064E70421B0F8010007F022FF01460028B7
S315000033707FF45CAFB31EB5F801009BB2EA1C07F000
S31500003380FEFE53E70E1FB6B2022E02D0102E40F0FC
S3150000339087800024CDE900446B1D06938DF81C60E0
S315000033A008AB13E90C00B5F80310B5F8010007F0F7
S315000033B0ADFE4FF6FF73984206463A4F05D16B783D
S315000033C0AA7843EA02237B8040E73B882146043BF8
S315000033D0ADF80E3004AA0DF10E0307F0FBFE04460D
S315000033E008B17E8040E73046BDF80E200499FFF70D
S315000033F085FE39E70E1FB6B2022E01D0102E4FD130
S315000034000024CDE9004405F1050AF6B28DF81460F2
S31500003410CDF810A05246059BB5F80310B5F801008B
S3150000342007F074FE4FF6FF7948450746DFF87480CB
S3150000343006D16B78AA7843EA0223A8F8023005E79A
S31500003440CDE90044CDF818A006AC8DF81C6001301B
S3150000345094E80C00494680B207F058FE0546B8F8D5
S3150000346000304845A3F1060318BF00F1FF35224698
S31500003470ADF80E304FF0000138460DF10E0318BFBF
S31500003480ADB207F0A7FE044610B1A8F80270EBE64D
S3150000349029463846BDF80E30069AFFF73DFEE3E6AC
S315000034A00424E1E6782400200022014B1A607047CC
S315000034B05417002003291FB503460A461CD9018864
S315000034C0081D824218D304D85888042805D0062837
S315000034D007D0012005B05DF804FB181DFFF72EFE8E
S315000034E0F7E70023CDE90233044B69460093022334
S315000034F0019307F0A1FEECE70020EBE74C25002046
S3150000350037B500220DF10700114600F05FF89DF86F
S3150000351007300C4C0BB10023236021680A4DC1F51E
S31500003520017292B229440DF1070000F04FF82368AA
S31500003530C11828462160FFF7BDFF08B100232360AC
S3150000354003B030BD541700205817002010B50446AC
S315000035504FF4807300210E4A0E4807F0F9FE4FF42F
S31500003560807300210C4A0D4807F0F2FE2046FCF756
S31500003570E7FD07F0B5FE00F007FC07F09BFD8307AB
S3150000358005D500F0CBFABDE8104000F07BB910BDC0
S315000035908C1A0020741900208C1900205C19002058
S315000035A008B513460A460146024807F08FFFC0B227
S315000035B008BD00BF7419002008B5034807F0D1FE06
S315000035C0003818BF012008BD74190020F8B50E4652
S315000035D01746044608F0FBFD214605463B463246A3
S315000035E0044807F073FF0446284608F0EBFD204622
S315000035F0F8BD00BF5C19002008B5034807F0B1FE0E
S31500003600003818BF012008BD5C190020F8B50E4629
S315000036101746044608F0DBFD214605463B46324682
S31500003620044807F01EFF0446284608F0CBFD204656
S31500003630F8BD00BF7419002010B50C4601460448B9
S3150000364007F06EFFA04234BF0020012010BD00BF6E
S315000036505C190020F8B50F46114606461546FFF7D9
S31500003660EBFF044628B12B463A463146024807F09E
S31500003670F8FE2046F8BD00BF5C19002010B5034CCB
S31500003680A07900F0C5FC0023236010BD8C1B002030
S3150000369010B5044C204600F051FC002344F8063CCB
S315000036A010BD00BF921B002010B5074CB4F80710E0
S315000036B0A07900F075FCB4F80D10B4F8090000F01C
S315000036C083FC0023236010BD8C1B0020014B9980D6
S315000036D0186070478C1B00200022014B1A6070474F
S315000036E08C1B0020034A13681BB19288824200D1CA
S315000036F0184770478C1B0020014B187018467047FE
S31500003700A6240020162808BF1320022110B5084C55
S3150000371060702046217000F06FFC00F0BBFD054B89
S31500003720054A05301A60627898809A7110BD00BF0C
S31500003730A62400208C1B00207D360000037810B5DF
S315000037400C2B04460AD80C2B0AD8DFE803F03B27DB
S315000037505209090909095B0909091500142B62D0E8
S31500003760204600F095F8002842D1072223783A48EF
S315000037700221027043700DE00C2337484FF0FF32F0
S315000037800370012382704370022203710023062115
S31500003790C2704371BDE8104000F02EBCC179837938
S315000037A02E4A43EA0123938013462D4943F8061B0C
S315000037B0D0F80110C2F80610B0F805209A80C27938
S315000037C09A7115E0C27A837A244943EA02238B80F0
S315000037D00B46244A43F8062BD0F80120C1F80620F0
S315000037E0D0F805205A60B0F809201A81C27A9A7278
S315000037F010BD00F04FFD194B1B4A05301A6098802A
S315000038006278DDE700F05EF9D4F80130092163F053
S31500003810FF03034010480246C0F80130002302F8B7
S31500003820011B5360B6E7B0F80310B0F8010000F0D2
S31500003830D9FB1523084800216FF004046FF0270216
S31500003840037007238170817144700921C27003716E
S315000038504471C27103729DE7A62400208C1B0020D0
S3150000386091360000A93600007D36000008B5044BED
S31500003870987900F0B1FBBDE80840FFF72DBF00BF07
S315000038808C1B00200122014B1A707047B2240020C5
S31500003890144B70B51E7805462EB10378162B04D04E
S315000038A0182B13D00026304670BD83784478172035
S315000038B01C4004F00304022C18BF0124FFF71CFF70
S315000038C002214470847007F008FDECE7B0F803109D
S315000038D00548FFF7FBFED5F80120044BC3F8062088
S315000038E0E1E700BFB22400206D3800008C1B0020E9
S315000038F013B50D4B01281B880C4CADF80030ADF804
S31500003900043002BF02238DF8003004236946206884
S3150000391008BF8DF8043007F0DBFE206801A907F028
S31500003920EDFE02B010BD00BF54C60000C01B002053
S3150000393010B51E4C1946236986B023B3A2F10800C0
S31500003940084322D1032101AA206807F055FF6368C6
S3150000395060615B7A022023769DF8043004F1180139
S31500003960DA1F53425341627E63F30002039B627681
S31500003970E361BDF80630638323699847012200217D
S31500003980206807F03DFF06B010BD02F17F400843F6
S3150000399005D10021012006B0BDE81040184712F4F9
S315000039A0A0411ABF00210320FF20F4E7C01B00201E
S315000039B00A46014602484FF40073006807F00ABF42
S315000039C0C01B0020F0B50446154D164A6B68807A78
S315000039D05B7A85B0D75C0E46FFF78AFF237A022B07
S315000039E00ED1002339461A46286807F0C0FDC0B23A
S315000039F098B10021FF20334605B0BDE8F0401847D6
S31500003A00002221680092039202918DF80C3039460B
S31500003A10286802AB07F0ADFDE9E72E6105B0F0BD01
S31500003A20C01B00202CC600002DE9F04304461C4DA7
S31500003A301C4A6B6885B05B7A807A12F803900E4652
S31500003A40FFF756FF237A0027022B04BF012300222B
S31500003A504FF001088DF80430636818BF226864339C
S31500003A600293637A494600928DF80C306A463B46CB
S31500003A7028688DF80D808DF80E7007F07CFD0446E1
S31500003A80424639462868E4B207F0BAFE2CB13946F8
S31500003A90FF20B04705B0BDE8F0832E61FAE700BF0E
S31500003AA0C01B00202CC600000022034B03211A6114
S31500003AB01868012207F056BDC01B00200048704759
S31500003AC0C81B0020014B188C704700BFC01B00208C
S31500003AD07FB502238DF80630064B5A8B596903329F
S31500003AE0ADF8042018686A4607F088FE009807B00B
S31500003AF05DF804FBC01B0020002313B5064C606074
S31500003B000093437AD0E90021206807F0CBFE00F04D
S31500003B100DF802B010BD00BFC01B0020024A138C76
S31500003B2043F4807313847047C01B002038B50D4CD6
S31500003B30238CDB050CD563680B4D1B7A2A789A42D9
S31500003B4006D0012B05D0022B07D063681B7A2B7099
S31500003B5038BD206800F042FEF7E7206800F044FE1A
S31500003B60F3E700BFC01B0020B324002010B50024DB
S31500003B70064B1C60064B1C7007F0D6FBB0FA80F3B0
S31500003B80044A5B091370044B1C7010BDE41B002033
S31500003B90B6240020B5240020B424002010B5074B1D
S31500003BA01C782CB9064B1B7833B107F0C5FB0446CD
S31500003BB000F066F8204610BD8124F9E7B6240020FF
S31500003BC0B524002038B50A460F4903460978C1B125
S31500003BD00E49087850B90E4C24783CB90D4C206833
S31500003BE01518B5F5806F02D98220087038BD1946C0
S31500003BF0094B184408F009FA2560BDE8384000F082
S31500003C000DB88120F2E700BFB5240020B6240020BD
S31500003C10B4240020E41B0020E81B002038B5134B19
S31500003C20134D1A782968022A0ED0032901D80020DC
S31500003C3038BD104A1068104A904203D084200F4BBA
S31500003C401870F5E702221A700A48FCF74BFC044686
S31500003C502A680749074807F044FB002CE7D041F2E1
S31500003C6007039C42E3D08520E9E700BFB524002086
S31500003C70E41B0020E81B0020EB17A603B624002057
S31500003C800022014B1A707047B52400201FB5124C54
S31500003C90637A20460133DBB2282B28BF25236372C3
S31500003CA0FFF72AFF0023CDE90233E368627C019324
S31500003CB00123617DD207094801F102018DF80C301C
S31500003CC048BF8DF80E30FFF773FE054901A8FFF7D0
S31500003CD079FE04B010BD00BFE81F0020FC1F0020C5
S31500003CE0E53C0000022810B51BD002D8012805D0FB
S31500003CF0FEE7032843D0FF2841D0F9E7214C637C37
S31500003D00990707D5FFF7D0FEFFF7C0FF637C6FF377
S31500003D1041036374637CDA0730D4BDE81040FFF7D3
S31500003D20B5BF4B78DB072AD54C68217801F00F0325
S31500003D30032B11D0052B22D1C90904F1080007F085
S31500003D40FAFBD8B1FFF7B0FEFFF7C2FE01462046E8
S31500003D50BDE8104000F0A4BAC90904F1080007F054
S31500003D60EAFB58B1074C94F83D1004F13C000231CF
S31500003D70FFF71EFE637C43F00203637410BDFFF77A
S31500003D8093FECAE7E81F002010B50A4C5A2200210C
S31500003D90204608F032F942F21072C4F80220064AB0
S31500003DA044F80A2C054A44F8062C42F2015224F83B
S31500003DB0022C10BDF21F0020D6BE898E5555550027
S31500003DC038B50446FFF770FE002C3FD0204C257C0A
S31500003DD0627CB5FA85F35B0963F300026274FFF750
S31500003DE06DFE837905F00F05C3F3000345EA8315DD
S31500003DF0237D23F04F031D43637D25750BB90623F1
S31500003E0063750368C4F816308288124B9A80FFF7F0
S31500003E1055FE837994F83C20C3F300039B0143F0DD
S31500003E20040322F04F02134384F83C3094F83D30EB
S31500003E3013B9062384F83D300368C4F83E308288FF
S31500003E40054B9A80BDE83840FFF720BF38BD00BF5C
S31500003E50E81F0020FE1F00202620002020290A46F9
S31500003E6008B509D8054B06315975014603F11C0002
S31500003E7008F0CBF8002008BD1220FCE7E81F002060
S31500003E8020290A4608B50AD8064B063183F83D10A4
S31500003E90014603F1440008F0B8F8002008BD1220DE
S31500003EA0FCE700BFE81F00200A20D0B50B4CE38CCE
S31500003EB0584305F00FFE0646A08C0F4605F00AFE95
S31500003EC00022074B05F070FE02460B463046394687
S31500003ED005F094FF06F07AF82083D0BD4C2100202F
S31500003EE00000F43F1FB5134CA37E5A061FD423F0DF
S31500003EF0070343F001032089A376FFF7F3FBA37AB8
S31500003F0004F10C00234493F82A306375FFF7F4FD9F
S31500003F10D4E90032A3EB520103EB520302934FF4B0
S31500003F208033019101A804490393FFF77DFD04B096
S31500003F3010BD00BF4C2100207D400000002213462A
S31500003F4030B58BB0D910415C03F007042141CC0792
S31500003F5042BF02F12801694401F8283C03F101033C
S31500003F6048BF0132252BEDD100230C4CD910415C02
S31500003F7003F007052941C9075FBFB3FBF2F102FB56
S31500003F801131283169444CBFD9B211F8281C0133CC
S31500003F90252B04F8011FE9D10BB030BD7521002097
S31500003FA010B540F2E244074A6043136800F580709A
S31500003FB004FB013303EB500313605368034453605F
S31500003FC010BD00BF4C210020024B9884D984FFF716
S31500003FD06BBF00BF4C210020014B1875704700BF16
S31500003FE04C210020C908814228BF0146014B198592
S31500003FF0704700BF4C210020044B5A6D22B958650A
S31500004000A3F8581001207047002070474C2100206B
S31500004010034A937E43F04003937607F05CB900BFF2
S315000040204C21002010B5144CA37E5B0623D4FFF769
S315000040303BFD40F2E241A28C236801FB023394F877
S315000040404F102360A37A0B442521B3FBF1F001FB4B
S3150000405010330A21A372238901332381636801FB8C
S3150000406002336360238B5A1E228323B9BDE81040B6
S315000040700820FFF7CDBF10BD4C2100200228F7B560
S315000040800E460BD003D8012800F0F180FEE7032886
S3150000409000F0F380FF2800F0F080F7E74D784F68D6
S315000040A015F00105794C59D10025A37E784F13F000
S315000040B0200F12D0616D6FF34513A376002900F02F
S315000040C0BB803B7894F8582043F00303B81C3B7040
S315000040D07A7007F09AFF00236365FFF76DFAA37EF7
S315000040E0797860F34103C3F3C002A376C3F30013E8
S315000040F09B0043EAC2033A7843EA001322F01C020B
S3150000410003F01C0302311343C9B261483B70FFF749
S315000041104FFCA37E7668D90709D56FF30003A37613
S3150000412000236360FFF7D4FC2060FFF7BDFE002D7F
S3150000413000F0AA80337803F00303022B06D0032B8A
S3150000414000F08E80012B40F09F8000252846727873
S31500004150B11C03B0BDE8F040FFF77CBA3B78A27E05
S31500004160C3F3001363F382023B78A276D1B2C3F3A2
S31500004170C000C2F30012904210D0A17EC3F38003A8
S31500004180C1F3C00293428FD082F00102D20042F006
S31500004190200221F028010A43A27685E703F00302F4
S315000041A0022A1DD0032A03D0012AE6D1002018E0F6
S315000041B0C1F3C002C3F38003934208D082F0010228
S315000041C0D20042F0200221F028010A43A276A37E03
S315000041D0C3F3001282F0010262F30413A37664E7CC
S315000041E02846797891B9A17EC3F38003C1F3C00252
S315000041F0934201D10025EAE782F00102D20042F0A3
S31500004200200221F028010A43A276F3E7FFF714FA09
S31500004210A27E3978C2F3C003C1F38001994208D067
S3150000422083F00103DB0043F0200322F0280213434E
S31500004230A3760028CBD137E794F82820B91C0DF1D6
S315000042400700FFF7ADF948B19DF807300133DBB23F
S315000042503A78787063F301023A703EE70123F7E794
S315000042607178B01C03B0BDE8F040FFF767BA074BA2
S315000042709B7E9A0708D45B0706D4FFF7D3FE03B0EC
S31500004280BDE8F040FFF72EBE03B0F0BD4C21002084
S315000042904C200020014B1889704700BF4C2100209C
S315000042A0F8B5224D04460E465C220021284607F04A
S315000042B0A4FE2023AB7605232B83627E237E012773
S315000042C043EA0223AB84627F237F04F11E0043EAA4
S315000042D00223EB8494F82330C3F3040385F84F30AC
S315000042E094F82330C3F3421385F850301B232B85F3
S315000042F0FFF724FED4F80E30E27CEB60A37C2E6040
S3150000430043EA0223227D2F7543EA02432B6195F887
S315000043104F30607DAB72E18A3944FFF741FEFFF70B
S31500004320E1FD204606F0D5FF3846F8BD4C210020B9
S31500004330F0B50D4604468BB018B9002420460BB0E4
S31500004340F0BD1A4E3768002FF7D12022394602A851
S3150000435007F053FE236801A80193154B1B88ADF89F
S315000043601430144B1B68079300F070F804460028BD
S31500004370E3D0306000F090F82046394607F0D9F9CE
S31500004380204607F01DF938B10020306000F084F8AF
S31500004390204607F010F9D0E7204600F0D5F90028AE
S315000043A0F2D1002DCAD02046A847C7E7A821002091
S315000043B0E8C60000ECC60000024B1868003818BFBB
S315000043C001207047A8210020431E033306D8044B62
S315000043D0984228BF1846642838BF6420704700BF3B
S315000043E040420F0038B505460C4641B10B6833B163
S315000043F01B68013303D0CB680BB18B684BB902F055
S31500004400B1F800204FF4B672412100F0D1F9212015
S3150000441038BD084602F016F900230A4A85F83031FD
S31500004420C5E93743C2E9003363694BB1064A422105
S3150000443010684FF4C572C31A5842584100F0B8F9D3
S315000044400020E5E7D8240020EC230020F8B5044638
S3150000445007F0BDFE002607460E4B1B6893B19E680B
S31500004460AEB196F82420D20711D435460FCC0FC52D
S315000044700FCC0FC523682B6096F8243043F0010358
S3150000448086F82430384607F09DFE3046F8BD1B6896
S31500004490E4E700BFF824002010B5044618B9054B20
S315000044A0054A136010BD00F059FAD4F8E830002B25
S315000044B0F6D1F4E79FB50000F424002008B50246C3
S315000044C00868FFF781FF08604868FFF77DFF4860CE
S315000044D08868FFF779FF8860C868FFF775FF0B6982
S315000044E0C860581C03D00B48834228BF03460B61A3
S315000044F04B69581C03D00748834228BF0346886986
S315000045004B61FFF761FFBDE808408861104601F086
S31500004510E1B800BF40420F00D0F8E0302DE9F0418D
S3150000452005460C4613B1838D8B424CD0D5F8DC3052
S31500004530002B4BD09E68002E48D0D868002845D066
S31500004540013800B200281ADB002106E0128A591C45
S31500004550A24217D209B2884211DB0B1803EBD373C0
S315000045605B1003EBC30206EB8202B2F80EC003F146
S31500004570FF3EA445EAD90FFA8EF08842EDDA2120F3
S31500004580BDE8F0814FF6FF7299B29142F7D09BB227
S3150000459003EBC30306EB83062846B6F9122095F80B
S315000045A02411D5F8F080FDF7D1FF0746B8F1000FCA
S315000045B004D00023324628461946C047AC85C5F8C4
S315000045C0E06085F82D710020BDE8F0810E20BDE881
S315000045D0F08100BF2DE9F04782B004460F4616462B
S315000045E001F03AFA00285ED1454D2B68D4F8DCA0DC
S315000045F0D4F8E0800BB1534562D04FF00009AF60AC
S3150000460001F048FA0128074651D12B68DAF8001064
S31500004610D8F8002013B1186888425CD0204607F00D
S315000046208AFAC5E900A8D4F8F0508DF80760002D85
S3150000463058D00022204611460DF10703A847204610
S3150000464000F0A0FC0546B9F1000F0FD076B9D4F8FA
S3150000465088300BBB012F05D025B12A4B0021032042
S315000046605B689847284602B0BDE8F087B5FA85F042
S315000046704FF485623321400900F09AF8314620460E
S3150000468000F098FE204B05461B6841462046984799
S31500004690D4F88830002BDDD000224FF4007320467A
S315000046A000F06CF9D6E70023154D6B609DE70021FD
S315000046B0012000F0A3F901F0EDF90128FBD1A4E7F0
S315000046C06B68002B99D0434597D1AB689F4215D0B4
S315000046D04FF0010993E7696811B109689142A0D0CA
S315000046E059689BE794F8281094F82D313246994280
S315000046F028BF1946204600F0C5FBA0E70025B1E714
S31500004700D824002000250020F4240020F8B50E4609
S31500004710054607F05CFD314607462846FFF7FCFED6
S31500004720044620B1384607F04DFD2046F8BD01F09D
S315000047306DF9224631462846FFF74CFF04463846B7
S3150000474007F040FD2046F8BD4FF4007307B50A494F
S315000047500DF10602ADF8063007F04CF8BDF806304C
S31500004760B3F5007F05D1022808BF002003B05DF82D
S3150000477004FB2120FAE700BFAC210020024B1860A1
S31500004780024B1960FEE700BFAC230020FC2400208A
S3150000479038B5044D044C054B286021601A60FFF7BC
S315000047A0EDFF38BDAC230020FC240020B023002000
S315000047B010B550B90548064B0160064802601868F6
S315000047C0054B18601868FFF7E3FF10BDFC240020B6
S315000047D0A8210020B0230020AC230020014907F0C7
S315000047E023B800BFD95C0000014907F01DB800BF1F
S315000047F0AD5C000037B50C46234D59B90A46012178
S3150000480004F0B0FF214BEC645C6003B0BDE83040BF
S3150000481004F0C6BF0122114604F0A4FF07221C4B78
S315000048200121DA60237901A885F84C306379019378
S3150000483007F0A5FB019BC2B2D34000F00F0040EA8F
S31500004840031085F84D00A27985F84E20E27985F8A7
S315000048504F202068286501939BB1012102888B4275
S3150000486008D82379013B13440A4A136204F098FFDF
S3150000487003B030BD30F811500131AA4228BF2A4694
S31500004880EDE71A46EDE700BF003F00B04C3F00B031
S31500004890006000B8004000B8431C07D06FF0FF026C
S315000048A0034B10405A62A3F580535862704700BF0D
S315000048B000E000B810B504234FF03A4101240A4A3B
S315000048C0D1F81801C2F81831C2F814314C634FF40C
S315000048D000511163410742BFC2F81431A2F580525C
S315000048E0C2F8183110BD00BF002000BAF8B5044662
S315000048F00F46164607F06BFC0546A047044620B156
S31500004900284607F05FFC2046F8BD04F0EBF80422C9
S315000049100549D1F8F03E23EA07033343C1F8F03ED8
S31500004920024B1A64ECE700BF003000B0002002B86A
S3150000493000F01803182B0AD003070AD440F201131B
S3150000494010F0100018BF1846034BD86770470020B8
S31500004950FAE70120F8E700BF003F00B038B103686E
S31500004960044A002B08BF1346034A13607047014BE5
S31500004970FAE700BFD1B800000C25002010B4D0E93A
S31500004980524122400B4052EA030104D003495DF82C
S31500004990044B096808475DF8044B70470C25002056
S315000049A0024B986E00F00F00704700BF003F00B04A
S315000049B00F2938B505460C460ED801F06BF80128CC
S315000049C00CD1074A2846936E23F00F0323439366C0
S315000049D007F0DBF8002038BD2120FCE70220FAE7CB
S315000049E0003F00B0014BD86E704700BF003F00B0DB
S315000049F0014B0020D9667047003F00B003282DE91F
S31500004A00F347884656D82D4B13F800902C4B1E5C66
S31500004A102C4B13F800A007F0DAFB074603F082FEE2
S31500004A20054640B100230022CDE9003301200023D2
S31500004A30002103F0A3FC03F07DFE48B10023002211
S31500004A40CDE90033002000234FF4004103F096FC2B
S31500004A5076B31D4BDC6C04F008041C4B314648460B
S31500004A60DC6404F09DF8012352463146484604F0C2
S31500004A7025F9174BDC646DB1164B1868D0F8901009
S31500004A80F83002F0CBFD14490868FFF705FF4FF038
S31500004A90FF330B60B8F1000F04D0104B0021032048
S31500004AA05B689847384602B0BDE8F04707F08ABB16
S31500004AB03446D2E702B0BDE8F08700BFF8C6000072
S31500004AC0F4C60000F0C60000004000B8006000B860
S31500004AD0005000B8A821002008250020002500204D
S31500004AE00F4A136C13F0A00F15D1506C10F0040090
S31500004AF013D10C4BD3F8F03E23F07F4323F0FF0392
S31500004B005BB1D368C3F30362092A07D0B2F10C0084
S31500004B1018BF01207047002070470120704700BF72
S31500004B20000002B8003000B070B50D46064620B948
S31500004B301A4B1B68A3B10E2011E000F0ABFF012851
S31500004B4029D1174B93F90040C4F12704641BC4F123
S31500004B501C03002BB8BF5B42232B0CDD212070BD4C
S31500004B60A1F10B03002BB8BF5B42232BF6DC0C4BE9
S31500004B7019700020F3E786F8265007F028FB094A4B
S31500004B80E402136A04F4FF2423F4FF231C43146293
S31500004B9007F018FBEDE70220E1E700BFA82100209F
S31500004BA0B724002000C000B8094B08465A6A910293
S31500004BB00BD4D3F80021D20708D4D3F8803013F4ED
S31500004BC0706F14BF0120002070470120704700BF9E
S31500004BD0004001B8F8B50D46D0F8903002EA01045D
S31500004BE023EA01032343C0F890303D4A01F00B034A
S31500004BF023EA0401D1642340A2F580526F070646DA
S31500004C00D36410D50121FFF7CFFF60B103F06AFF2F
S31500004C104FF4007314F0040F14BF324A324A536241
S31500004C200422324B1A64E90606D514F0100F14BF9D
S31500004C3000221B222E4B5A652A061DD5230616D5A1
S31500004C404FF40012274B1A62012203F58053C3F872
S31500004C50002107F0BCFA0E210746032002F066FC8D
S31500004C6040F20122224B3846DA6207F0ABFA2146BF
S31500004C7006F1F80002F0D2FCEF0503D5E00529D5D0
S31500004C8002F042FCA90503D5A20526D502F048FC90
S31500004C9015F0600F09D0D6F8E410304606F019FE7C
S31500004CA08022144B9867144B1A612B0510D503F01C
S31500004CB019FF124A14F4006FD2F8F03E14BF43F005
S31500004CC0006323F00063C2F8F03E0422074B1A6427
S31500004CD00020F8BD02F012FCD4E702F01BFCD7E777
S31500004CE0006000B8005001B8006001B8002002B8AA
S31500004CF0004000B8003F00B0000002B8003000B02D
S31500004D0090F825305A1F012A01D9082B05D14B7C72
S31500004D102BB1012B05D0022B05D006F030BE03487F
S31500004D207047034870470348704700BF20A107003B
S31500004D3048E8010040420F000A78022A11D0101FED
S31500004D404242424152004B781201022B0BD0191FEE
S31500004D504B424B415B000549054842EA8312FFF787
S31500004D60C5BD0122EFE70123F5E700BFF0FFFF0015
S31500004D70DD5A00000B78022B10D0181F4342434126
S31500004D805B004A78022A0BD0111F4A424A41520060
S31500004D900F21044843EA8202FFF7A8BD0123F0E78A
S31500004DA00122F5E7095B00002DE9F8430E78044679
S31500004DB0042E0D4690F824810BD100275FFA87F95F
S31500004DC0484601F0ADFC08B14E4602E00137042F1B
S31500004DD0F4D1304601F0A4FC002849D094F82431DF
S31500004DE0B34209D1AA88D4F8A4309A4204D16A8879
S31500004DF0B4F826319A4238D084F82461AB8830461C
S31500004E00A4F828316B88A4F82631AB8804F592758E
S31500004E10C4F8A430FF2384F8293006F034FF84F860
S31500004E202800284601F03CFC18BB284601F06EFC21
S31500004E30F8B9D4F8E03053B194F82411414506D0BE
S31500004E402046B3F91220FDF781FB84F82D01204698
S31500004E5001F0AAFC0949A4F828010123084AD1F85F
S31500004E60FC1004F1F80003F01BF80020BDE8F883FD
S31500004E7021200C2384F82431F8E700BF004F00B04E
S31500004E80A43F00B070B5054690F824010C460C28E6
S31500004E901FD0FF2901D1212070BD1AB14FF0FF327A
S31500004EA00D4B1A6006F0EFFE064695F8240101F058
S31500004EB06DFC844228BF0446E4B2B44238BF34468F
S31500004EC0E0B285F8290001F06BFDFF28E3D0002051
S31500004ED0E2E70220E0E700BF1425002010B590F8B5
S31500004EE0243104460C2B44D0D0F8E03080F828104A
S31500004EF0DBB3D0F8F020D2B990F82D318B421CD319
S31500004F0000222046FFF7BEFF48BB1B4B1B7813F061
S31500004F10FD0F23D1204601F047FC18490123184A0A
S31500004F20D1F8FC1004F1F80002F0BAFF16E0B0F96F
S31500004F304020B3F912309A42E2DD0022204694F86E
S31500004F402D11FFF79FFF50B9C4F8E000204606F088
S31500004F50A7FB4FF6FF739842014601D1002010BD12
S31500004F602046BDE81040FFF7D1BBFF2380F829306B
S31500004F70F4E70220F3E700BF46250020004F00B00B
S31500004F80A43F00B0D0F89830012B01D10020704723
S31500004F9070B5054650498EB006F0C8FED5F8E060FB
S31500004FA00146AC8DC5F8E40026B1336813B15B68E1
S31500004FB0002B6BD107F00BF907F004F90123D5F8A4
S31500004FC0E4108DF80E30B389D6E90120E31A9BB2BE
S31500004FD000FB03224148ADF80C3003680292994267
S31500004FE007D0284606F075FC80223D493D4B886770
S31500004FF01A613D4C3B4E00F04DFD0128FBD1236C60
S31500005000D907F8D4336CDA01F5D4D5F8E41028467C
S315000050100D919DF80E20029908AB02F00FFC0028B6
S3150000502031D100F037FD0128FBD12E4A2E49136CF1
S31500005030DB01FCD40B6CDE07F9D408A901A802F049
S315000050401FFE00BBAA8D294B5A6495F8243060F3E5
S31500005050410385F8243006F0CDFDD5F8E030024650
S315000050605B691968431EDBB2FD2B049114D9CC1C75
S3150000507012D91F4B01311B6815D0D81C10D82846F1
S3150000508004A904930AE002200EB070BD1A68032A30
S3150000509090D99B6A5B0E94E7284604A906F094FD16
S315000050A000200EB070BDD91C04D8284604A904936C
S315000050B006F08AFDD5F84C319B0506D495F82430C8
S315000050C043F0020385F82430EAE728464FF480319E
S315000050D006F06BFBE4E700BFFC4F00B0B8230020EE
S315000050E0003F00B0000002B800C002B8008001B85E
S315000050F02025002038B590F830510446002D37D0D1
S3150000510007F065F81F221B4B013D5A621540A3F5B7
S3150000511080535D62D4F83421A3F580539A66D4F89F
S315000051203821DA66D3F80031DB071AD5D4F8E43033
S31500005130DBB11A68122A18D9196D4FF0FF332029EE
S315000051400A4628BF202219B1C2F120029340DB4350
S31500005150084AC2F80431D4F89C201340064AC2F823
S315000051600431BDE8384007F02DB84FF0FF33EFE7C4
S3150000517038BD00BF006001B8005001B82DE9F84FF6
S31500005180074615460B4611B92120BDE8F88F002ABF
S31500005190FAD0032905D8002201F032F90346002887
S315000051A0F2D01C889A78B4F5804F02F0070180F09F
S315000051B0CE80A1F1070C187993F805B0DE88DCF1F2
S315000051C0000343EB0C0305292B7394BF0023C2F3A2
S315000051D00013C2F3801C6B73930985F810C003F0AB
S315000051E00203C2F3C00C43EA0C03C2F34012E87494
S315000051F06B74AA74D7F89030AE82D80600F193800B
S315000052000639012900F28F80B7F81290D7F81C8072
S3150000521009F1FF394F4B083C04EA09045B6D18F8A5
S3150000522004300021802B0CBF6FF07F03323B04F16A
S31500005230010418BF5BB204EA0904AB73631D03EAF9
S3150000524009035A1CA96002EA090218F8022018F894
S31500005250036097F825A046EA022636B2BAF1000F97
S315000052605FD1F10456D5D7F8E43013B11B68022B91
S3150000527005D841F2A9624C210020FFF799FAD7F828
S31500005280E420C6F30B0392F82420DB000AB1B3FB3B
S31500005290F2F39B4508D83BB1CBEB0B2BBBFBF3FBE7
S315000052A06FEA0B0B5FFA8BFAD7F8EC3023B1504656
S315000052B095F90E1098478246013485F80FA004EA46
S315000052C0090418F80410013404EA090418F8043033
S315000052D0013404EA090441EA032118F804300134D0
S315000052E004EA090441EA034118F8043041EA03617B
S315000052F016F4804305D0184BDB6EB3FA83F35B09D3
S315000053005B0038466A7C02F0CDFE06232860AB714E
S3150000531000203AE718F804A04FEA4A0A5FFA8AFA28
S31500005320C2E78A46C8E700230020EB730B4BDA6915
S31500005330C2F30723120448BF63F0FF035AB212F107
S31500005340800F1CBF323B5AB2AA730346DEE7022027
S315000053501BE700BF004000B8003F00B000C000B827
S3150000536070B54FF03A434FF480640A4DD3F8186194
S315000053700020C5F81841C5F8144103F077FC4FF436
S3150000538000532B67730542BF034BC5F81441C3F89E
S31500005390184170BD002000BA001000BA082310B1F1
S315000053A0024A13647047024AFBE700BF001002B8C6
S315000053B0002002B8F8B504460E4619B990F8243014
S315000053C05A0647D44FF6FF73218ED4F8E4709942FB
S315000053D004D0354B1B680BB120469847334D2B68DC
S315000053E0BB4255D0324B1B683BB11FB13A68002A0D
S315000053F050D0BF683946204698470727204601F017
S31500005400D3F9002E3AD004F0CBF90620294B94F9B3
S31500005410262093F900302849C3F127039B1A0A6A0C
S31500005420DB0222F4FF2203F4FF2313430B62D4F8BA
S31500005430E420224B2A60986701F01AFB002501211F
S315000054401F4A204B1170204683F8845006F09DFBBE
S315000054502846F8BD4FF6FF71144DD0F8E4702A685F
S3150000546066F386139742018680F8243017D0104BD6
S315000054701B68002BB9D101F097F9072712493B4663
S31500005480124AD1F8FC1004F1F80002F009FDBAE75F
S315000054900127B3E71746204639469847ADE701F09E
S315000054A083F90127EAE700BFC0230020B8230020C4
S315000054B0BC230020B724002000C000B8006000B85C
S315000054C0B8240020003F00B0004F00B0A43F00B059
S315000054D0054A12681AB190F81E1119B91047084604
S315000054E002F036B801487047B423002000FEFFFFE3
S315000054F0334B2DE9F7431C6801F4007900F00103F2
